{
  "contractName": "PBANK",
  "abi": [
    {
      "anonymous": false,
      "inputs": [
        {
          "indexed": false,
          "internalType": "uint256",
          "name": "amount",
          "type": "uint256"
        }
      ],
      "name": "deposit",
      "type": "event"
    },
    {
      "anonymous": false,
      "inputs": [
        {
          "indexed": false,
          "internalType": "uint256",
          "name": "amount",
          "type": "uint256"
        }
      ],
      "name": "withdraw",
      "type": "event"
    },
    {
      "inputs": [],
      "name": "owner",
      "outputs": [
        {
          "internalType": "address",
          "name": "",
          "type": "address"
        }
      ],
      "stateMutability": "view",
      "type": "function"
    },
    {
      "stateMutability": "payable",
      "type": "receive"
    },
    {
      "inputs": [],
      "name": "Withdraw",
      "outputs": [],
      "stateMutability": "nonpayable",
      "type": "function"
    }
  ],
  "bytecode": "0x608060405234801561001057600080fd5b506102f7806100206000396000f3fe60806040526004361061002d5760003560e01c806357ea89b6146100705780638da5cb5b146100875761006b565b3661006b577fb6b55f256c3eb337f96418d59e773db6e805074f5e574a2bebb7d713940436193460405161006191906101cd565b60405180910390a1005b600080fd5b34801561007c57600080fd5b506100856100b2565b005b34801561009357600080fd5b5061009c610190565b6040516100a99190610229565b60405180910390f35b60008054906101000a900473ffffffffffffffffffffffffffffffffffffffff1673ffffffffffffffffffffffffffffffffffffffff163373ffffffffffffffffffffffffffffffffffffffff1614610140576040517f08c379a0000000000000000000000000000000000000000000000000000000008152600401610137906102a1565b60405180910390fd5b7f2e1a7d4d13322e7b96f9a57413e1525c250fb7a9021cf91d1540d5b69f16a49f4760405161016f91906101cd565b60405180910390a13373ffffffffffffffffffffffffffffffffffffffff16ff5b60008054906101000a900473ffffffffffffffffffffffffffffffffffffffff1681565b6000819050919050565b6101c7816101b4565b82525050565b60006020820190506101e260008301846101be565b92915050565b600073ffffffffffffffffffffffffffffffffffffffff82169050919050565b6000610213826101e8565b9050919050565b61022381610208565b82525050565b600060208201905061023e600083018461021a565b92915050565b600082825260208201905092915050565b7f6e6f7420746865206f776e657200000000000000000000000000000000000000600082015250565b600061028b600d83610244565b915061029682610255565b602082019050919050565b600060208201905081810360008301526102ba8161027e565b905091905056fea264697066735822122028f521d6b5f8c1bb57dc0239919686e8cd740e190921947d5fa0c47b483e28cf64736f6c634300080e0033",
  "immutableReferences": {},
  "source": "// SPDX-License-Identifier: MIT\npragma solidity ^0.8.0;\n\ncontract PBANK{\n    event deposit(uint amount);\n    event withdraw(uint amount);\n\n    address public owner;\n\n    modifier onlyowner(){\n        require(msg.sender == owner, \"not the owner\");\n        _;\n    }\n\n    receive() external payable{\n        emit deposit(msg.value);\n    }\n\n    function Withdraw() external onlyowner {\n        emit withdraw(address(this).balance);\n        selfdestruct(payable(msg.sender));\n    }\n\n}\n",
  "sourcePath": "C:\\Users\\Prince-Joel\\Desktop\\biggyBank\\contracts\\PBANK.sol",
  "compiler": {
    "name": "solc",
    "version": "0.8.14+commit.80d49f37.Emscripten.clang"
  },
  "schemaVersion": "3.4.7",
  "updatedAt": "2022-06-30T01:57:53.952Z",
  "devdoc": {
    "kind": "dev",
    "methods": {},
    "version": 1
  },
  "userdoc": {
    "kind": "user",
    "methods": {},
    "version": 1
  }
}